{
  "contractName": "CurationCouncilRegistryDelegate",
  "abi": [
    {
      "constant": true,
      "inputs": [],
      "name": "botCoin",
      "outputs": [
        {
          "name": "",
          "type": "address"
        }
      ],
      "payable": false,
      "stateMutability": "view",
      "type": "function"
    },
    {
      "constant": true,
      "inputs": [
        {
          "name": "registrationVoteId",
          "type": "uint256"
        }
      ],
      "name": "getVoteFinalBlock",
      "outputs": [
        {
          "name": "",
          "type": "uint256"
        }
      ],
      "payable": false,
      "stateMutability": "view",
      "type": "function"
    },
    {
      "constant": true,
      "inputs": [],
      "name": "name",
      "outputs": [
        {
          "name": "",
          "type": "string"
        }
      ],
      "payable": false,
      "stateMutability": "view",
      "type": "function"
    },
    {
      "constant": true,
      "inputs": [
        {
          "name": "memberAddress",
          "type": "address"
        }
      ],
      "name": "getStakeAmount",
      "outputs": [
        {
          "name": "",
          "type": "uint256"
        }
      ],
      "payable": false,
      "stateMutability": "view",
      "type": "function"
    },
    {
      "constant": true,
      "inputs": [],
      "name": "totalVotes",
      "outputs": [
        {
          "name": "",
          "type": "uint256"
        }
      ],
      "payable": false,
      "stateMutability": "view",
      "type": "function"
    },
    {
      "constant": true,
      "inputs": [],
      "name": "developerRegistry",
      "outputs": [
        {
          "name": "",
          "type": "address"
        }
      ],
      "payable": false,
      "stateMutability": "view",
      "type": "function"
    },
    {
      "constant": false,
      "inputs": [
        {
          "name": "threshold",
          "type": "uint256"
        }
      ],
      "name": "setAutoApproveThreshold",
      "outputs": [],
      "payable": false,
      "stateMutability": "nonpayable",
      "type": "function"
    },
    {
      "constant": true,
      "inputs": [
        {
          "name": "registrationVoteId",
          "type": "uint256"
        }
      ],
      "name": "getNayCount",
      "outputs": [
        {
          "name": "",
          "type": "uint256"
        }
      ],
      "payable": false,
      "stateMutability": "view",
      "type": "function"
    },
    {
      "constant": true,
      "inputs": [
        {
          "name": "registrationVoteId",
          "type": "uint256"
        },
        {
          "name": "memberAddress",
          "type": "address"
        }
      ],
      "name": "getVotedOnStatus",
      "outputs": [
        {
          "name": "",
          "type": "bool"
        }
      ],
      "payable": false,
      "stateMutability": "view",
      "type": "function"
    },
    {
      "constant": true,
      "inputs": [],
      "name": "getMinStake",
      "outputs": [
        {
          "name": "",
          "type": "uint256"
        }
      ],
      "payable": false,
      "stateMutability": "view",
      "type": "function"
    },
    {
      "constant": true,
      "inputs": [],
      "name": "tallaWallet",
      "outputs": [
        {
          "name": "",
          "type": "address"
        }
      ],
      "payable": false,
      "stateMutability": "view",
      "type": "function"
    },
    {
      "constant": true,
      "inputs": [
        {
          "name": "registrationVoteId",
          "type": "uint256"
        }
      ],
      "name": "getYayCount",
      "outputs": [
        {
          "name": "",
          "type": "uint256"
        }
      ],
      "payable": false,
      "stateMutability": "view",
      "type": "function"
    },
    {
      "constant": true,
      "inputs": [
        {
          "name": "registrationVoteId",
          "type": "uint256"
        }
      ],
      "name": "getVoteInitialBlock",
      "outputs": [
        {
          "name": "",
          "type": "uint256"
        }
      ],
      "payable": false,
      "stateMutability": "view",
      "type": "function"
    },
    {
      "constant": true,
      "inputs": [],
      "name": "totalMembers",
      "outputs": [
        {
          "name": "",
          "type": "uint256"
        }
      ],
      "payable": false,
      "stateMutability": "view",
      "type": "function"
    },
    {
      "constant": true,
      "inputs": [
        {
          "name": "developerAddress",
          "type": "address"
        }
      ],
      "name": "registrationVoteExists",
      "outputs": [
        {
          "name": "",
          "type": "bool"
        }
      ],
      "payable": false,
      "stateMutability": "view",
      "type": "function"
    },
    {
      "constant": true,
      "inputs": [
        {
          "name": "memberAddress",
          "type": "address"
        }
      ],
      "name": "getJoinedCouncilBlockHeight",
      "outputs": [
        {
          "name": "",
          "type": "uint256"
        }
      ],
      "payable": false,
      "stateMutability": "view",
      "type": "function"
    },
    {
      "constant": false,
      "inputs": [
        {
          "name": "addr",
          "type": "address"
        }
      ],
      "name": "changeDeveloperRegistry",
      "outputs": [],
      "payable": false,
      "stateMutability": "nonpayable",
      "type": "function"
    },
    {
      "constant": true,
      "inputs": [],
      "name": "getOwner",
      "outputs": [
        {
          "name": "",
          "type": "address"
        }
      ],
      "payable": false,
      "stateMutability": "view",
      "type": "function"
    },
    {
      "constant": true,
      "inputs": [
        {
          "name": "registrationVoteId",
          "type": "uint256"
        }
      ],
      "name": "getRegistrationVoteAddressById",
      "outputs": [
        {
          "name": "",
          "type": "address"
        }
      ],
      "payable": false,
      "stateMutability": "view",
      "type": "function"
    },
    {
      "constant": false,
      "inputs": [
        {
          "name": "amount",
          "type": "uint256"
        }
      ],
      "name": "setMinStake",
      "outputs": [],
      "payable": false,
      "stateMutability": "nonpayable",
      "type": "function"
    },
    {
      "constant": true,
      "inputs": [],
      "name": "getAutoApproveThreshold",
      "outputs": [
        {
          "name": "",
          "type": "uint256"
        }
      ],
      "payable": false,
      "stateMutability": "view",
      "type": "function"
    },
    {
      "constant": false,
      "inputs": [
        {
          "name": "entryPrice",
          "type": "uint256"
        }
      ],
      "name": "setEntryPrice",
      "outputs": [],
      "payable": false,
      "stateMutability": "nonpayable",
      "type": "function"
    },
    {
      "constant": false,
      "inputs": [
        {
          "name": "registrationVoteId",
          "type": "uint256"
        }
      ],
      "name": "setVotedOnStatus",
      "outputs": [],
      "payable": false,
      "stateMutability": "nonpayable",
      "type": "function"
    },
    {
      "constant": true,
      "inputs": [
        {
          "name": "memberId",
          "type": "uint256"
        }
      ],
      "name": "getMemberAddressById",
      "outputs": [
        {
          "name": "",
          "type": "address"
        }
      ],
      "payable": false,
      "stateMutability": "view",
      "type": "function"
    },
    {
      "constant": true,
      "inputs": [
        {
          "name": "registrationVoteAddress",
          "type": "address"
        }
      ],
      "name": "getRegistrationVoteIdByAddress",
      "outputs": [
        {
          "name": "",
          "type": "uint256"
        }
      ],
      "payable": false,
      "stateMutability": "view",
      "type": "function"
    },
    {
      "constant": true,
      "inputs": [
        {
          "name": "memberAddress",
          "type": "address"
        }
      ],
      "name": "getMemberIdByAddress",
      "outputs": [
        {
          "name": "",
          "type": "uint256"
        }
      ],
      "payable": false,
      "stateMutability": "view",
      "type": "function"
    },
    {
      "constant": false,
      "inputs": [
        {
          "name": "tallaWallet",
          "type": "address"
        }
      ],
      "name": "setTallaWallet",
      "outputs": [],
      "payable": false,
      "stateMutability": "nonpayable",
      "type": "function"
    },
    {
      "constant": true,
      "inputs": [],
      "name": "developerRegistryAddress",
      "outputs": [
        {
          "name": "",
          "type": "address"
        }
      ],
      "payable": false,
      "stateMutability": "view",
      "type": "function"
    },
    {
      "constant": false,
      "inputs": [
        {
          "name": "newOwner",
          "type": "address"
        }
      ],
      "name": "transferOwnership",
      "outputs": [],
      "payable": false,
      "stateMutability": "nonpayable",
      "type": "function"
    },
    {
      "constant": true,
      "inputs": [],
      "name": "entryPrice",
      "outputs": [
        {
          "name": "",
          "type": "uint256"
        }
      ],
      "payable": false,
      "stateMutability": "view",
      "type": "function"
    },
    {
      "inputs": [
        {
          "name": "storage_",
          "type": "address"
        }
      ],
      "payable": false,
      "stateMutability": "nonpayable",
      "type": "constructor"
    },
    {
      "anonymous": false,
      "inputs": [
        {
          "indexed": false,
          "name": "registrationVoteId",
          "type": "uint256"
        },
        {
          "indexed": false,
          "name": "initialBlock",
          "type": "uint256"
        },
        {
          "indexed": false,
          "name": "finalBlock",
          "type": "uint256"
        },
        {
          "indexed": false,
          "name": "developerAddress",
          "type": "address"
        },
        {
          "indexed": false,
          "name": "yayCount",
          "type": "uint256"
        },
        {
          "indexed": false,
          "name": "nayCount",
          "type": "uint256"
        },
        {
          "indexed": false,
          "name": "veto",
          "type": "bool"
        }
      ],
      "name": "RegistrationVoteCreated",
      "type": "event"
    },
    {
      "anonymous": false,
      "inputs": [
        {
          "indexed": true,
          "name": "previousOwner",
          "type": "address"
        },
        {
          "indexed": true,
          "name": "newOwner",
          "type": "address"
        }
      ],
      "name": "OwnershipTransferred",
      "type": "event"
    },
    {
      "constant": true,
      "inputs": [],
      "name": "tokenVault",
      "outputs": [
        {
          "name": "",
          "type": "address"
        }
      ],
      "payable": false,
      "stateMutability": "view",
      "type": "function"
    },
    {
      "constant": true,
      "inputs": [],
      "name": "tokenVaultAddress",
      "outputs": [
        {
          "name": "",
          "type": "address"
        }
      ],
      "payable": false,
      "stateMutability": "view",
      "type": "function"
    },
    {
      "constant": false,
      "inputs": [
        {
          "name": "addr",
          "type": "address"
        }
      ],
      "name": "changeTokenVault",
      "outputs": [],
      "payable": false,
      "stateMutability": "nonpayable",
      "type": "function"
    },
    {
      "constant": false,
      "inputs": [
        {
          "name": "stakeAmount",
          "type": "uint256"
        }
      ],
      "name": "joinCouncil",
      "outputs": [],
      "payable": false,
      "stateMutability": "nonpayable",
      "type": "function"
    },
    {
      "constant": false,
      "inputs": [],
      "name": "leaveCouncil",
      "outputs": [],
      "payable": false,
      "stateMutability": "nonpayable",
      "type": "function"
    },
    {
      "constant": false,
      "inputs": [],
      "name": "createRegistrationVote",
      "outputs": [],
      "payable": false,
      "stateMutability": "nonpayable",
      "type": "function"
    },
    {
      "constant": false,
      "inputs": [
        {
          "name": "registrationVoteId",
          "type": "uint256"
        },
        {
          "name": "vote",
          "type": "bool"
        }
      ],
      "name": "castRegistrationVote",
      "outputs": [],
      "payable": false,
      "stateMutability": "nonpayable",
      "type": "function"
    }
  ],
  "bytecode": "0x60806040523480156200001157600080fd5b5060405160208062004c31833981018060405281019080805190602001909291905050508080818080806000806101000a81548173ffffffffffffffffffffffffffffffffffffffff021916908373ffffffffffffffffffffffffffffffffffffffff1602179055505060008173ffffffffffffffffffffffffffffffffffffffff16141515620000b757620000b633620000c2640100000000026401000000009004565b5b5050505050620001c3565b6000809054906101000a900473ffffffffffffffffffffffffffffffffffffffff1673ffffffffffffffffffffffffffffffffffffffff1663ca446dd9826040518263ffffffff167c010000000000000000000000000000000000000000000000000000000002815260040180807f6f776e65720000000000000000000000000000000000000000000000000000008152506020018273ffffffffffffffffffffffffffffffffffffffff1673ffffffffffffffffffffffffffffffffffffffff168152602001915050600060405180830381600087803b158015620001a757600080fd5b505af1158015620001bc573d6000803e3d6000fd5b5050505050565b614a5e80620001d36000396000f3006080604052600436106101cd576000357c0100000000000000000000000000000000000000000000000000000000900463ffffffff168063047913ce146101d2578063063b84fc1461022957806306fdde031461026a5780630c2eb403146102fa5780630d15fd7714610351578063107d0be11461037c57806314956f44146103d3578063235e22261461040057806353cf05ac1461044157806356a3b5fa146104a65780635bc789d9146104d157806368743fbd146105285780636f1d88841461057f5780637202761b146105d65780637439c42d1461061757806376e92559146106585780637a31ae04146106835780637e6a7282146106de57806384286eb214610717578063870f74581461076e578063893d20e8146107b1578063895eedc8146108085780638c80fd90146108755780639075cadc146108a2578063a6e77af1146108cd578063ab3dfb17146108fa578063c04f50ec14610927578063c720771a14610994578063c9d65537146109eb578063cfdd1ce314610a18578063dcbd32fe14610a6f578063dce5384414610ab2578063e4f3931814610af5578063ea4e268d14610b4c578063ed64bf2914610b63578063f2fde38b14610b7a578063f745adfc14610bbd575b600080fd5b3480156101de57600080fd5b506101e7610be8565b604051808273ffffffffffffffffffffffffffffffffffffffff1673ffffffffffffffffffffffffffffffffffffffff16815260200191505060405180910390f35b34801561023557600080fd5b5061025460048036038101908080359060200190929190505050610cda565b6040518082815260200191505060405180910390f35b34801561027657600080fd5b5061027f610df3565b6040518080602001828103825283818151815260200191508051906020019080838360005b838110156102bf5780820151818401526020810190506102a4565b50505050905090810190601f1680156102ec5780820380516001836020036101000a031916815260200191505b509250505060405180910390f35b34801561030657600080fd5b5061033b600480360381019080803573ffffffffffffffffffffffffffffffffffffffff169060200190929190505050610e2c565b6040518082815260200191505060405180910390f35b34801561035d57600080fd5b50610366610f80565b6040518082815260200191505060405180910390f35b34801561038857600080fd5b5061039161108f565b604051808273ffffffffffffffffffffffffffffffffffffffff1673ffffffffffffffffffffffffffffffffffffffff16815260200191505060405180910390f35b3480156103df57600080fd5b506103fe60048036038101908080359060200190929190505050611181565b005b34801561040c57600080fd5b5061042b600480360381019080803590602001909291905050506112b2565b6040518082815260200191505060405180910390f35b34801561044d57600080fd5b5061048c60048036038101908080359060200190929190803573ffffffffffffffffffffffffffffffffffffffff1690602001909291905050506113cb565b604051808215151515815260200191505060405180910390f35b3480156104b257600080fd5b506104bb611528565b6040518082815260200191505060405180910390f35b3480156104dd57600080fd5b506104e6611637565b604051808273ffffffffffffffffffffffffffffffffffffffff1673ffffffffffffffffffffffffffffffffffffffff16815260200191505060405180910390f35b34801561053457600080fd5b5061053d611729565b604051808273ffffffffffffffffffffffffffffffffffffffff1673ffffffffffffffffffffffffffffffffffffffff16815260200191505060405180910390f35b34801561058b57600080fd5b5061059461181b565b604051808273ffffffffffffffffffffffffffffffffffffffff1673ffffffffffffffffffffffffffffffffffffffff16815260200191505060405180910390f35b3480156105e257600080fd5b506106016004803603810190808035906020019092919050505061190d565b6040518082815260200191505060405180910390f35b34801561062357600080fd5b5061064260048036038101908080359060200190929190505050611a26565b6040518082815260200191505060405180910390f35b34801561066457600080fd5b5061066d611b3f565b6040518082815260200191505060405180910390f35b34801561068f57600080fd5b506106c4600480360381019080803573ffffffffffffffffffffffffffffffffffffffff169060200190929190505050611c4e565b604051808215151515815260200191505060405180910390f35b3480156106ea57600080fd5b5061071560048036038101908080359060200190929190803515159060200190929190505050611da2565b005b34801561072357600080fd5b50610758600480360381019080803573ffffffffffffffffffffffffffffffffffffffff169060200190929190505050611e33565b6040518082815260200191505060405180910390f35b34801561077a57600080fd5b506107af600480360381019080803573ffffffffffffffffffffffffffffffffffffffff169060200190929190505050611f87565b005b3480156107bd57600080fd5b506107c66120ed565b604051808273ffffffffffffffffffffffffffffffffffffffff1673ffffffffffffffffffffffffffffffffffffffff16815260200191505060405180910390f35b34801561081457600080fd5b50610833600480360381019080803590602001909291905050506121df565b604051808273ffffffffffffffffffffffffffffffffffffffff1673ffffffffffffffffffffffffffffffffffffffff16815260200191505060405180910390f35b34801561088157600080fd5b506108a0600480360381019080803590602001909291905050506122f8565b005b3480156108ae57600080fd5b506108b7612429565b6040518082815260200191505060405180910390f35b3480156108d957600080fd5b506108f860048036038101908080359060200190929190505050612538565b005b34801561090657600080fd5b506109256004803603810190808035906020019092919050505061264c565b005b34801561093357600080fd5b506109526004803603810190808035906020019092919050505061278c565b604051808273ffffffffffffffffffffffffffffffffffffffff1673ffffffffffffffffffffffffffffffffffffffff16815260200191505060405180910390f35b3480156109a057600080fd5b506109d5600480360381019080803573ffffffffffffffffffffffffffffffffffffffff1690602001909291905050506128a5565b6040518082815260200191505060405180910390f35b3480156109f757600080fd5b50610a16600480360381019080803590602001909291905050506129f9565b005b348015610a2457600080fd5b50610a59600480360381019080803573ffffffffffffffffffffffffffffffffffffffff169060200190929190505050612a05565b6040518082815260200191505060405180910390f35b348015610a7b57600080fd5b50610ab0600480360381019080803573ffffffffffffffffffffffffffffffffffffffff169060200190929190505050612b59565b005b348015610abe57600080fd5b50610af3600480360381019080803573ffffffffffffffffffffffffffffffffffffffff169060200190929190505050612cbf565b005b348015610b0157600080fd5b50610b0a612e25565b604051808273ffffffffffffffffffffffffffffffffffffffff1673ffffffffffffffffffffffffffffffffffffffff16815260200191505060405180910390f35b348015610b5857600080fd5b50610b61612f17565b005b348015610b6f57600080fd5b50610b78612f21565b005b348015610b8657600080fd5b50610bbb600480360381019080803573ffffffffffffffffffffffffffffffffffffffff169060200190929190505050612f2b565b005b348015610bc957600080fd5b50610bd2613015565b6040518082815260200191505060405180910390f35b60008060009054906101000a900473ffffffffffffffffffffffffffffffffffffffff1673ffffffffffffffffffffffffffffffffffffffff166321f8a7216040518163ffffffff167c010000000000000000000000000000000000000000000000000000000002815260040180807f626f74436f696e416464726573730000000000000000000000000000000000008152506020019050602060405180830381600087803b158015610c9a57600080fd5b505af1158015610cae573d6000803e3d6000fd5b505050506040513d6020811015610cc457600080fd5b8101908080519060200190929190505050905090565b60008060009054906101000a900473ffffffffffffffffffffffffffffffffffffffff1673ffffffffffffffffffffffffffffffffffffffff1663bd02d0f58360405180807f726567697374726174696f6e566f746546696e616c426c6f636b000000000000815250601a0182815260200191505060405180910390206040518263ffffffff167c0100000000000000000000000000000000000000000000000000000000028152600401808260001916600019168152602001915050602060405180830381600087803b158015610db157600080fd5b505af1158015610dc5573d6000803e3d6000fd5b505050506040513d6020811015610ddb57600080fd5b81019080805190602001909291905050509050919050565b6040805190810160405280601781526020017f4375726174696f6e436f756e63696c526567697374727900000000000000000081525081565b60008060009054906101000a900473ffffffffffffffffffffffffffffffffffffffff1673ffffffffffffffffffffffffffffffffffffffff1663bd02d0f58360405180807f7374616b65416d6f756e74000000000000000000000000000000000000000000815250600b018273ffffffffffffffffffffffffffffffffffffffff1673ffffffffffffffffffffffffffffffffffffffff166c0100000000000000000000000002815260140191505060405180910390206040518263ffffffff167c0100000000000000000000000000000000000000000000000000000000028152600401808260001916600019168152602001915050602060405180830381600087803b158015610f3e57600080fd5b505af1158015610f52573d6000803e3d6000fd5b505050506040513d6020811015610f6857600080fd5b81019080805190602001909291905050509050919050565b60008060009054906101000a900473ffffffffffffffffffffffffffffffffffffffff1673ffffffffffffffffffffffffffffffffffffffff1663bd02d0f560405180807f746f74616c566f74657300000000000000000000000000000000000000000000815250600a01905060405180910390206040518263ffffffff167c0100000000000000000000000000000000000000000000000000000000028152600401808260001916600019168152602001915050602060405180830381600087803b15801561104f57600080fd5b505af1158015611063573d6000803e3d6000fd5b505050506040513d602081101561107957600080fd5b8101908080519060200190929190505050905090565b60008060009054906101000a900473ffffffffffffffffffffffffffffffffffffffff1673ffffffffffffffffffffffffffffffffffffffff166321f8a7216040518163ffffffff167c010000000000000000000000000000000000000000000000000000000002815260040180807f646576656c6f70657252656769737472794164647265737300000000000000008152506020019050602060405180830381600087803b15801561114157600080fd5b505af1158015611155573d6000803e3d6000fd5b505050506040513d602081101561116b57600080fd5b8101908080519060200190929190505050905090565b6111896120ed565b73ffffffffffffffffffffffffffffffffffffffff163373ffffffffffffffffffffffffffffffffffffffff161415156111c257600080fd5b6000809054906101000a900473ffffffffffffffffffffffffffffffffffffffff1673ffffffffffffffffffffffffffffffffffffffff1663e2a4853a60405180807f6175746f417070726f76655468726573686f6c6400000000000000000000000081525060140190506040518091039020836040518363ffffffff167c010000000000000000000000000000000000000000000000000000000002815260040180836000191660001916815260200182815260200192505050600060405180830381600087803b15801561129757600080fd5b505af11580156112ab573d6000803e3d6000fd5b5050505050565b60008060009054906101000a900473ffffffffffffffffffffffffffffffffffffffff1673ffffffffffffffffffffffffffffffffffffffff1663bd02d0f58360405180807f726567697374726174696f6e566f74654e6179436f756e74000000000000000081525060180182815260200191505060405180910390206040518263ffffffff167c0100000000000000000000000000000000000000000000000000000000028152600401808260001916600019168152602001915050602060405180830381600087803b15801561138957600080fd5b505af115801561139d573d6000803e3d6000fd5b505050506040513d60208110156113b357600080fd5b81019080805190602001909291905050509050919050565b60008060009054906101000a900473ffffffffffffffffffffffffffffffffffffffff1673ffffffffffffffffffffffffffffffffffffffff16637ae1cfca848460405180807f766f7465644f6e000000000000000000000000000000000000000000000000008152506007018381526020018273ffffffffffffffffffffffffffffffffffffffff1673ffffffffffffffffffffffffffffffffffffffff166c010000000000000000000000000281526014019250505060405180910390206040518263ffffffff167c0100000000000000000000000000000000000000000000000000000000028152600401808260001916600019168152602001915050602060405180830381600087803b1580156114e557600080fd5b505af11580156114f9573d6000803e3d6000fd5b505050506040513d602081101561150f57600080fd5b8101908080519060200190929190505050905092915050565b60008060009054906101000a900473ffffffffffffffffffffffffffffffffffffffff1673ffffffffffffffffffffffffffffffffffffffff1663bd02d0f560405180807f6d696e5374616b65416d6f756e74000000000000000000000000000000000000815250600e01905060405180910390206040518263ffffffff167c0100000000000000000000000000000000000000000000000000000000028152600401808260001916600019168152602001915050602060405180830381600087803b1580156115f757600080fd5b505af115801561160b573d6000803e3d6000fd5b505050506040513d602081101561162157600080fd5b8101908080519060200190929190505050905090565b60008060009054906101000a900473ffffffffffffffffffffffffffffffffffffffff1673ffffffffffffffffffffffffffffffffffffffff166321f8a7216040518163ffffffff167c010000000000000000000000000000000000000000000000000000000002815260040180807f746f6b656e5661756c74416464726573730000000000000000000000000000008152506020019050602060405180830381600087803b1580156116e957600080fd5b505af11580156116fd573d6000803e3d6000fd5b505050506040513d602081101561171357600080fd5b8101908080519060200190929190505050905090565b60008060009054906101000a900473ffffffffffffffffffffffffffffffffffffffff1673ffffffffffffffffffffffffffffffffffffffff166321f8a7216040518163ffffffff167c010000000000000000000000000000000000000000000000000000000002815260040180807f746f6b656e5661756c74416464726573730000000000000000000000000000008152506020019050602060405180830381600087803b1580156117db57600080fd5b505af11580156117ef573d6000803e3d6000fd5b505050506040513d602081101561180557600080fd5b8101908080519060200190929190505050905090565b60008060009054906101000a900473ffffffffffffffffffffffffffffffffffffffff1673ffffffffffffffffffffffffffffffffffffffff166321f8a7216040518163ffffffff167c010000000000000000000000000000000000000000000000000000000002815260040180807f74616c6c6157616c6c65740000000000000000000000000000000000000000008152506020019050602060405180830381600087803b1580156118cd57600080fd5b505af11580156118e1573d6000803e3d6000fd5b505050506040513d60208110156118f757600080fd5b8101908080519060200190929190505050905090565b60008060009054906101000a900473ffffffffffffffffffffffffffffffffffffffff1673ffffffffffffffffffffffffffffffffffffffff1663bd02d0f58360405180807f726567697374726174696f6e566f7465596179436f756e74000000000000000081525060180182815260200191505060405180910390206040518263ffffffff167c0100000000000000000000000000000000000000000000000000000000028152600401808260001916600019168152602001915050602060405180830381600087803b1580156119e457600080fd5b505af11580156119f8573d6000803e3d6000fd5b505050506040513d6020811015611a0e57600080fd5b81019080805190602001909291905050509050919050565b60008060009054906101000a900473ffffffffffffffffffffffffffffffffffffffff1673ffffffffffffffffffffffffffffffffffffffff1663bd02d0f58360405180807f726567697374726174696f6e566f7465496e697469616c426c6f636b00000000815250601c0182815260200191505060405180910390206040518263ffffffff167c0100000000000000000000000000000000000000000000000000000000028152600401808260001916600019168152602001915050602060405180830381600087803b158015611afd57600080fd5b505af1158015611b11573d6000803e3d6000fd5b505050506040513d6020811015611b2757600080fd5b81019080805190602001909291905050509050919050565b60008060009054906101000a900473ffffffffffffffffffffffffffffffffffffffff1673ffffffffffffffffffffffffffffffffffffffff1663bd02d0f560405180807f746f74616c4d656d626572730000000000000000000000000000000000000000815250600c01905060405180910390206040518263ffffffff167c0100000000000000000000000000000000000000000000000000000000028152600401808260001916600019168152602001915050602060405180830381600087803b158015611c0e57600080fd5b505af1158015611c22573d6000803e3d6000fd5b505050506040513d6020811015611c3857600080fd5b8101908080519060200190929190505050905090565b60008060009054906101000a900473ffffffffffffffffffffffffffffffffffffffff1673ffffffffffffffffffffffffffffffffffffffff16637ae1cfca8360405180807f726567697374726174696f6e566f7465457869737473000000000000000000008152506016018273ffffffffffffffffffffffffffffffffffffffff1673ffffffffffffffffffffffffffffffffffffffff166c0100000000000000000000000002815260140191505060405180910390206040518263ffffffff167c0100000000000000000000000000000000000000000000000000000000028152600401808260001916600019168152602001915050602060405180830381600087803b158015611d6057600080fd5b505af1158015611d74573d6000803e3d6000fd5b505050506040513d6020811015611d8a57600080fd5b81019080805190602001909291905050509050919050565b611dac8282613107565b611db4611637565b73ffffffffffffffffffffffffffffffffffffffff1663538ed7286040518163ffffffff167c0100000000000000000000000000000000000000000000000000000000028152600401600060405180830381600087803b158015611e1757600080fd5b505af1158015611e2b573d6000803e3d6000fd5b505050505050565b60008060009054906101000a900473ffffffffffffffffffffffffffffffffffffffff1673ffffffffffffffffffffffffffffffffffffffff1663bd02d0f53360405180807f6a6f696e6564436f756e63696c426c6f636b48656967687400000000000000008152506018018273ffffffffffffffffffffffffffffffffffffffff1673ffffffffffffffffffffffffffffffffffffffff166c0100000000000000000000000002815260140191505060405180910390206040518263ffffffff167c0100000000000000000000000000000000000000000000000000000000028152600401808260001916600019168152602001915050602060405180830381600087803b158015611f4557600080fd5b505af1158015611f59573d6000803e3d6000fd5b505050506040513d6020811015611f6f57600080fd5b81019080805190602001909291905050509050919050565b611f8f6120ed565b73ffffffffffffffffffffffffffffffffffffffff163373ffffffffffffffffffffffffffffffffffffffff16141515611fc857600080fd5b60008173ffffffffffffffffffffffffffffffffffffffff1614151515611fee57600080fd5b6000809054906101000a900473ffffffffffffffffffffffffffffffffffffffff1673ffffffffffffffffffffffffffffffffffffffff1663ca446dd9826040518263ffffffff167c010000000000000000000000000000000000000000000000000000000002815260040180807f646576656c6f70657252656769737472794164647265737300000000000000008152506020018273ffffffffffffffffffffffffffffffffffffffff1673ffffffffffffffffffffffffffffffffffffffff168152602001915050600060405180830381600087803b1580156120d257600080fd5b505af11580156120e6573d6000803e3d6000fd5b5050505050565b60008060009054906101000a900473ffffffffffffffffffffffffffffffffffffffff1673ffffffffffffffffffffffffffffffffffffffff166321f8a7216040518163ffffffff167c010000000000000000000000000000000000000000000000000000000002815260040180807f6f776e65720000000000000000000000000000000000000000000000000000008152506020019050602060405180830381600087803b15801561219f57600080fd5b505af11580156121b3573d6000803e3d6000fd5b505050506040513d60208110156121c957600080fd5b8101908080519060200190929190505050905090565b60008060009054906101000a900473ffffffffffffffffffffffffffffffffffffffff1673ffffffffffffffffffffffffffffffffffffffff166321f8a7218360405180807f726567697374726174696f6e566f74654164647265737300000000000000000081525060170182815260200191505060405180910390206040518263ffffffff167c0100000000000000000000000000000000000000000000000000000000028152600401808260001916600019168152602001915050602060405180830381600087803b1580156122b657600080fd5b505af11580156122ca573d6000803e3d6000fd5b505050506040513d60208110156122e057600080fd5b81019080805190602001909291905050509050919050565b6123006120ed565b73ffffffffffffffffffffffffffffffffffffffff163373ffffffffffffffffffffffffffffffffffffffff1614151561233957600080fd5b6000809054906101000a900473ffffffffffffffffffffffffffffffffffffffff1673ffffffffffffffffffffffffffffffffffffffff1663e2a4853a60405180807f6d696e5374616b65416d6f756e74000000000000000000000000000000000000815250600e0190506040518091039020836040518363ffffffff167c010000000000000000000000000000000000000000000000000000000002815260040180836000191660001916815260200182815260200192505050600060405180830381600087803b15801561240e57600080fd5b505af1158015612422573d6000803e3d6000fd5b5050505050565b60008060009054906101000a900473ffffffffffffffffffffffffffffffffffffffff1673ffffffffffffffffffffffffffffffffffffffff1663bd02d0f560405180807f6175746f417070726f76655468726573686f6c64000000000000000000000000815250601401905060405180910390206040518263ffffffff167c0100000000000000000000000000000000000000000000000000000000028152600401808260001916600019168152602001915050602060405180830381600087803b1580156124f857600080fd5b505af115801561250c573d6000803e3d6000fd5b505050506040513d602081101561252257600080fd5b8101908080519060200190929190505050905090565b6125406120ed565b73ffffffffffffffffffffffffffffffffffffffff163373ffffffffffffffffffffffffffffffffffffffff1614151561257957600080fd5b6000809054906101000a900473ffffffffffffffffffffffffffffffffffffffff1673ffffffffffffffffffffffffffffffffffffffff1663e2a4853a826040518263ffffffff167c010000000000000000000000000000000000000000000000000000000002815260040180807f656e747279507269636500000000000000000000000000000000000000000000815250602001828152602001915050600060405180830381600087803b15801561263157600080fd5b505af1158015612645573d6000803e3d6000fd5b5050505050565b6000809054906101000a900473ffffffffffffffffffffffffffffffffffffffff1673ffffffffffffffffffffffffffffffffffffffff1663abfdcced823360405180807f766f7465644f6e000000000000000000000000000000000000000000000000008152506007018381526020018273ffffffffffffffffffffffffffffffffffffffff1673ffffffffffffffffffffffffffffffffffffffff166c0100000000000000000000000002815260140192505050604051809103902060016040518363ffffffff167c01000000000000000000000000000000000000000000000000000000000281526004018083600019166000191681526020018215151515815260200192505050600060405180830381600087803b15801561277157600080fd5b505af1158015612785573d6000803e3d6000fd5b5050505050565b60008060009054906101000a900473ffffffffffffffffffffffffffffffffffffffff1673ffffffffffffffffffffffffffffffffffffffff166321f8a7218360405180807f6d656d6265724164647265737300000000000000000000000000000000000000815250600d0182815260200191505060405180910390206040518263ffffffff167c0100000000000000000000000000000000000000000000000000000000028152600401808260001916600019168152602001915050602060405180830381600087803b15801561286357600080fd5b505af1158015612877573d6000803e3d6000fd5b505050506040513d602081101561288d57600080fd5b81019080805190602001909291905050509050919050565b60008060009054906101000a900473ffffffffffffffffffffffffffffffffffffffff1673ffffffffffffffffffffffffffffffffffffffff1663bd02d0f58360405180807f726567697374726174696f6e566f7465496400000000000000000000000000008152506012018273ffffffffffffffffffffffffffffffffffffffff1673ffffffffffffffffffffffffffffffffffffffff166c0100000000000000000000000002815260140191505060405180910390206040518263ffffffff167c0100000000000000000000000000000000000000000000000000000000028152600401808260001916600019168152602001915050602060405180830381600087803b1580156129b757600080fd5b505af11580156129cb573d6000803e3d6000fd5b505050506040513d60208110156129e157600080fd5b81019080805190602001909291905050509050919050565b612a028161313c565b50565b60008060009054906101000a900473ffffffffffffffffffffffffffffffffffffffff1673ffffffffffffffffffffffffffffffffffffffff1663bd02d0f58360405180807f6d656d62657249640000000000000000000000000000000000000000000000008152506008018273ffffffffffffffffffffffffffffffffffffffff1673ffffffffffffffffffffffffffffffffffffffff166c0100000000000000000000000002815260140191505060405180910390206040518263ffffffff167c0100000000000000000000000000000000000000000000000000000000028152600401808260001916600019168152602001915050602060405180830381600087803b158015612b1757600080fd5b505af1158015612b2b573d6000803e3d6000fd5b505050506040513d6020811015612b4157600080fd5b81019080805190602001909291905050509050919050565b612b616120ed565b73ffffffffffffffffffffffffffffffffffffffff163373ffffffffffffffffffffffffffffffffffffffff16141515612b9a57600080fd5b60008173ffffffffffffffffffffffffffffffffffffffff1614151515612bc057600080fd5b6000809054906101000a900473ffffffffffffffffffffffffffffffffffffffff1673ffffffffffffffffffffffffffffffffffffffff1663ca446dd9826040518263ffffffff167c010000000000000000000000000000000000000000000000000000000002815260040180807f74616c6c6157616c6c65740000000000000000000000000000000000000000008152506020018273ffffffffffffffffffffffffffffffffffffffff1673ffffffffffffffffffffffffffffffffffffffff168152602001915050600060405180830381600087803b158015612ca457600080fd5b505af1158015612cb8573d6000803e3d6000fd5b5050505050565b612cc76120ed565b73ffffffffffffffffffffffffffffffffffffffff163373ffffffffffffffffffffffffffffffffffffffff16141515612d0057600080fd5b60008173ffffffffffffffffffffffffffffffffffffffff1614151515612d2657600080fd5b6000809054906101000a900473ffffffffffffffffffffffffffffffffffffffff1673ffffffffffffffffffffffffffffffffffffffff1663ca446dd9826040518263ffffffff167c010000000000000000000000000000000000000000000000000000000002815260040180807f746f6b656e5661756c74416464726573730000000000000000000000000000008152506020018273ffffffffffffffffffffffffffffffffffffffff1673ffffffffffffffffffffffffffffffffffffffff168152602001915050600060405180830381600087803b158015612e0a57600080fd5b505af1158015612e1e573d6000803e3d6000fd5b5050505050565b60008060009054906101000a900473ffffffffffffffffffffffffffffffffffffffff1673ffffffffffffffffffffffffffffffffffffffff166321f8a7216040518163ffffffff167c010000000000000000000000000000000000000000000000000000000002815260040180807f646576656c6f70657252656769737472794164647265737300000000000000008152506020019050602060405180830381600087803b158015612ed757600080fd5b505af1158015612eeb573d6000803e3d6000fd5b505050506040513d6020811015612f0157600080fd5b8101908080519060200190929190505050905090565b612f1f613768565b565b612f29613884565b565b612f336120ed565b73ffffffffffffffffffffffffffffffffffffffff163373ffffffffffffffffffffffffffffffffffffffff16141515612f6c57600080fd5b600073ffffffffffffffffffffffffffffffffffffffff168173ffffffffffffffffffffffffffffffffffffffff1614151515612fa857600080fd5b8073ffffffffffffffffffffffffffffffffffffffff16612fc76120ed565b73ffffffffffffffffffffffffffffffffffffffff167f8be0079c531659141344cd1fd0a4f28419497f9722a3daafe3b4186f6b6457e060405160405180910390a361301281613aaf565b50565b60008060009054906101000a900473ffffffffffffffffffffffffffffffffffffffff1673ffffffffffffffffffffffffffffffffffffffff1663bd02d0f56040518163ffffffff167c010000000000000000000000000000000000000000000000000000000002815260040180807f656e7472795072696365000000000000000000000000000000000000000000008152506020019050602060405180830381600087803b1580156130c757600080fd5b505af11580156130db573d6000803e3d6000fd5b505050506040513d60208110156130f157600080fd5b8101908080519060200190929190505050905090565b61311082611a26565b61311933611e33565b10151561312557600080fd5b61312f8282613bae565b61313882613c18565b5050565b60008061314833610e2c565b14151561315457600080fd5b61315c610be8565b73ffffffffffffffffffffffffffffffffffffffff166323b872dd3330856040518463ffffffff167c0100000000000000000000000000000000000000000000000000000000028152600401808473ffffffffffffffffffffffffffffffffffffffff1673ffffffffffffffffffffffffffffffffffffffff1681526020018373ffffffffffffffffffffffffffffffffffffffff1673ffffffffffffffffffffffffffffffffffffffff1681526020018281526020019350505050602060405180830381600087803b15801561323257600080fd5b505af1158015613246573d6000803e3d6000fd5b505050506040513d602081101561325c57600080fd5b8101908080519060200190929190505050151561327857600080fd5b613280611528565b821015151561328e57600080fd5b6132a9600161329b611b3f565b613dac90919063ffffffff16565b90506000809054906101000a900473ffffffffffffffffffffffffffffffffffffffff1673ffffffffffffffffffffffffffffffffffffffff1663ca446dd98260405180807f6d656d6265724164647265737300000000000000000000000000000000000000815250600d018281526020019150506040518091039020336040518363ffffffff167c01000000000000000000000000000000000000000000000000000000000281526004018083600019166000191681526020018273ffffffffffffffffffffffffffffffffffffffff1673ffffffffffffffffffffffffffffffffffffffff16815260200192505050600060405180830381600087803b1580156133b457600080fd5b505af11580156133c8573d6000803e3d6000fd5b505050506000809054906101000a900473ffffffffffffffffffffffffffffffffffffffff1673ffffffffffffffffffffffffffffffffffffffff1663e2a4853a3360405180807f6d656d62657249640000000000000000000000000000000000000000000000008152506008018273ffffffffffffffffffffffffffffffffffffffff1673ffffffffffffffffffffffffffffffffffffffff166c010000000000000000000000000281526014019150506040518091039020836040518363ffffffff167c010000000000000000000000000000000000000000000000000000000002815260040180836000191660001916815260200182815260200192505050600060405180830381600087803b1580156134e457600080fd5b505af11580156134f8573d6000803e3d6000fd5b505050506000809054906101000a900473ffffffffffffffffffffffffffffffffffffffff1673ffffffffffffffffffffffffffffffffffffffff1663e2a4853a3360405180807f7374616b65416d6f756e74000000000000000000000000000000000000000000815250600b018273ffffffffffffffffffffffffffffffffffffffff1673ffffffffffffffffffffffffffffffffffffffff166c010000000000000000000000000281526014019150506040518091039020846040518363ffffffff167c010000000000000000000000000000000000000000000000000000000002815260040180836000191660001916815260200182815260200192505050600060405180830381600087803b15801561361457600080fd5b505af1158015613628573d6000803e3d6000fd5b505050506000809054906101000a900473ffffffffffffffffffffffffffffffffffffffff1673ffffffffffffffffffffffffffffffffffffffff1663e2a4853a3360405180807f6a6f696e6564436f756e63696c426c6f636b48656967687400000000000000008152506018018273ffffffffffffffffffffffffffffffffffffffff1673ffffffffffffffffffffffffffffffffffffffff166c010000000000000000000000000281526014019150506040518091039020436040518363ffffffff167c010000000000000000000000000000000000000000000000000000000002815260040180836000191660001916815260200182815260200192505050600060405180830381600087803b15801561374457600080fd5b505af1158015613758573d6000803e3d6000fd5b50505050613764613dca565b5050565b60003373ffffffffffffffffffffffffffffffffffffffff161415151561378e57600080fd5b600061379861108f565b73ffffffffffffffffffffffffffffffffffffffff1663f7bc39bf336040518263ffffffff167c0100000000000000000000000000000000000000000000000000000000028152600401808273ffffffffffffffffffffffffffffffffffffffff1673ffffffffffffffffffffffffffffffffffffffff168152602001915050602060405180830381600087803b15801561383257600080fd5b505af1158015613846573d6000803e3d6000fd5b505050506040513d602081101561385c57600080fd5b81019080805190602001909291905050501415151561387a57600080fd5b613882613ed3565b565b61388c610be8565b73ffffffffffffffffffffffffffffffffffffffff1663a9059cbb336138b133610e2c565b6040518363ffffffff167c0100000000000000000000000000000000000000000000000000000000028152600401808373ffffffffffffffffffffffffffffffffffffffff1673ffffffffffffffffffffffffffffffffffffffff16815260200182815260200192505050602060405180830381600087803b15801561393657600080fd5b505af115801561394a573d6000803e3d6000fd5b505050506040513d602081101561396057600080fd5b8101908080519060200190929190505050151561397c57600080fd5b6000809054906101000a900473ffffffffffffffffffffffffffffffffffffffff1673ffffffffffffffffffffffffffffffffffffffff1663e2a4853a3360405180807f7374616b65416d6f756e74000000000000000000000000000000000000000000815250600b018273ffffffffffffffffffffffffffffffffffffffff1673ffffffffffffffffffffffffffffffffffffffff166c01000000000000000000000000028152601401915050604051809103902060006040518363ffffffff167c010000000000000000000000000000000000000000000000000000000002815260040180836000191660001916815260200182815260200192505050600060405180830381600087803b158015613a9557600080fd5b505af1158015613aa9573d6000803e3d6000fd5b50505050565b6000809054906101000a900473ffffffffffffffffffffffffffffffffffffffff1673ffffffffffffffffffffffffffffffffffffffff1663ca446dd9826040518263ffffffff167c010000000000000000000000000000000000000000000000000000000002815260040180807f6f776e65720000000000000000000000000000000000000000000000000000008152506020018273ffffffffffffffffffffffffffffffffffffffff1673ffffffffffffffffffffffffffffffffffffffff168152602001915050600060405180830381600087803b158015613b9357600080fd5b505af1158015613ba7573d6000803e3d6000fd5b5050505050565b613bb882336113cb565b151515613bc457600080fd5b43613bce83610cda565b10151515613bdb57600080fd5b8015613bf857613bf382613bee33610e2c565b614717565b613c0b565b613c0a82613c0533610e2c565b614820565b5b613c148261264c565b5050565b6000613c2261108f565b73ffffffffffffffffffffffffffffffffffffffff1663f7bc39bf613c46846121df565b6040518263ffffffff167c0100000000000000000000000000000000000000000000000000000000028152600401808273ffffffffffffffffffffffffffffffffffffffff1673ffffffffffffffffffffffffffffffffffffffff168152602001915050602060405180830381600087803b158015613cc457600080fd5b505af1158015613cd8573d6000803e3d6000fd5b505050506040513d6020811015613cee57600080fd5b81019080805190602001909291905050509050613d09612429565b613d128361190d565b101515613da857613d2161108f565b73ffffffffffffffffffffffffffffffffffffffff16637ca62997826040518263ffffffff167c010000000000000000000000000000000000000000000000000000000002815260040180828152602001915050600060405180830381600087803b158015613d8f57600080fd5b505af1158015613da3573d6000803e3d6000fd5b505050505b5050565b6000808284019050838110151515613dc057fe5b8091505092915050565b6000809054906101000a900473ffffffffffffffffffffffffffffffffffffffff1673ffffffffffffffffffffffffffffffffffffffff1663e2a4853a60405180807f746f74616c4d656d626572730000000000000000000000000000000000000000815250600c0190506040518091039020613e586001613e4a611b3f565b613dac90919063ffffffff16565b6040518363ffffffff167c010000000000000000000000000000000000000000000000000000000002815260040180836000191660001916815260200182815260200192505050600060405180830381600087803b158015613eb957600080fd5b505af1158015613ecd573d6000803e3d6000fd5b50505050565b6000806000613ee133611c4e565b151515613eed57600080fd5b439250620186a083019150613f136001613f05610f80565b613dac90919063ffffffff16565b90506000809054906101000a900473ffffffffffffffffffffffffffffffffffffffff1673ffffffffffffffffffffffffffffffffffffffff1663ca446dd98260405180807f726567697374726174696f6e566f7465416464726573730000000000000000008152506017018281526020019150506040518091039020336040518363ffffffff167c01000000000000000000000000000000000000000000000000000000000281526004018083600019166000191681526020018273ffffffffffffffffffffffffffffffffffffffff1673ffffffffffffffffffffffffffffffffffffffff16815260200192505050600060405180830381600087803b15801561401e57600080fd5b505af1158015614032573d6000803e3d6000fd5b505050506000809054906101000a900473ffffffffffffffffffffffffffffffffffffffff1673ffffffffffffffffffffffffffffffffffffffff1663e2a4853a3360405180807f726567697374726174696f6e566f7465496400000000000000000000000000008152506012018273ffffffffffffffffffffffffffffffffffffffff1673ffffffffffffffffffffffffffffffffffffffff166c010000000000000000000000000281526014019150506040518091039020836040518363ffffffff167c010000000000000000000000000000000000000000000000000000000002815260040180836000191660001916815260200182815260200192505050600060405180830381600087803b15801561414e57600080fd5b505af1158015614162573d6000803e3d6000fd5b505050506000809054906101000a900473ffffffffffffffffffffffffffffffffffffffff1673ffffffffffffffffffffffffffffffffffffffff1663abfdcced3360405180807f726567697374726174696f6e566f7465457869737473000000000000000000008152506016018273ffffffffffffffffffffffffffffffffffffffff1673ffffffffffffffffffffffffffffffffffffffff166c01000000000000000000000000028152601401915050604051809103902060016040518363ffffffff167c01000000000000000000000000000000000000000000000000000000000281526004018083600019166000191681526020018215151515815260200192505050600060405180830381600087803b15801561428357600080fd5b505af1158015614297573d6000803e3d6000fd5b505050506000809054906101000a900473ffffffffffffffffffffffffffffffffffffffff1673ffffffffffffffffffffffffffffffffffffffff1663e2a4853a8260405180807f726567697374726174696f6e566f7465496e697469616c426c6f636b00000000815250601c018281526020019150506040518091039020856040518363ffffffff167c010000000000000000000000000000000000000000000000000000000002815260040180836000191660001916815260200182815260200192505050600060405180830381600087803b15801561437857600080fd5b505af115801561438c573d6000803e3d6000fd5b505050506000809054906101000a900473ffffffffffffffffffffffffffffffffffffffff1673ffffffffffffffffffffffffffffffffffffffff1663e2a4853a8260405180807f726567697374726174696f6e566f746546696e616c426c6f636b000000000000815250601a018281526020019150506040518091039020846040518363ffffffff167c010000000000000000000000000000000000000000000000000000000002815260040180836000191660001916815260200182815260200192505050600060405180830381600087803b15801561446d57600080fd5b505af1158015614481573d6000803e3d6000fd5b505050506000809054906101000a900473ffffffffffffffffffffffffffffffffffffffff1673ffffffffffffffffffffffffffffffffffffffff1663e2a4853a8260405180807f726567697374726174696f6e566f7465596179436f756e740000000000000000815250601801828152602001915050604051809103902060006040518363ffffffff167c010000000000000000000000000000000000000000000000000000000002815260040180836000191660001916815260200182815260200192505050600060405180830381600087803b15801561456357600080fd5b505af1158015614577573d6000803e3d6000fd5b505050506000809054906101000a900473ffffffffffffffffffffffffffffffffffffffff1673ffffffffffffffffffffffffffffffffffffffff1663e2a4853a8260405180807f726567697374726174696f6e566f74654e6179436f756e740000000000000000815250601801828152602001915050604051809103902060006040518363ffffffff167c010000000000000000000000000000000000000000000000000000000002815260040180836000191660001916815260200182815260200192505050600060405180830381600087803b15801561465957600080fd5b505af115801561466d573d6000803e3d6000fd5b50505050614679614929565b7f7fbc806a315ef36b3174eaf05d9420464f2bb0105ac87536eb88531485457695818484336000806000604051808881526020018781526020018681526020018573ffffffffffffffffffffffffffffffffffffffff1673ffffffffffffffffffffffffffffffffffffffff1681526020018481526020018381526020018215151515815260200197505050505050505060405180910390a1505050565b60006147228361190d565b90506000809054906101000a900473ffffffffffffffffffffffffffffffffffffffff1673ffffffffffffffffffffffffffffffffffffffff1663e2a4853a8460405180807f726567697374726174696f6e566f7465596179436f756e74000000000000000081525060180182815260200191505060405180910390208484016040518363ffffffff167c010000000000000000000000000000000000000000000000000000000002815260040180836000191660001916815260200182815260200192505050600060405180830381600087803b15801561480357600080fd5b505af1158015614817573d6000803e3d6000fd5b50505050505050565b600061482b836112b2565b90506000809054906101000a900473ffffffffffffffffffffffffffffffffffffffff1673ffffffffffffffffffffffffffffffffffffffff1663e2a4853a8460405180807f726567697374726174696f6e566f74654e6179436f756e74000000000000000081525060180182815260200191505060405180910390208484016040518363ffffffff167c010000000000000000000000000000000000000000000000000000000002815260040180836000191660001916815260200182815260200192505050600060405180830381600087803b15801561490c57600080fd5b505af1158015614920573d6000803e3d6000fd5b50505050505050565b6000809054906101000a900473ffffffffffffffffffffffffffffffffffffffff1673ffffffffffffffffffffffffffffffffffffffff1663e2a4853a60405180807f746f74616c566f74657300000000000000000000000000000000000000000000815250600a01905060405180910390206149b760016149a9610f80565b613dac90919063ffffffff16565b6040518363ffffffff167c010000000000000000000000000000000000000000000000000000000002815260040180836000191660001916815260200182815260200192505050600060405180830381600087803b158015614a1857600080fd5b505af1158015614a2c573d6000803e3d6000fd5b505050505600a165627a7a72305820d905e44755136ad2550dfde1da45ae2527c25529c9c2c649c016f299483c6ddd0029",
  "source": "pragma solidity ^0.4.18;\n\nimport \"../Registry/CurationCouncilRegistry.sol\";\nimport \"./TokenVaultDelegate.sol\";\n\n/**\n * @title CurationCouncilRegistryDelegate\n * @dev Delegate contract for functionality that handles curation of developers on the platform.\n */\ncontract CurationCouncilRegistryDelegate is CurationCouncilRegistry {\n\n  string public constant name = \"CurationCouncilRegistry\";\n\n  /**\n  * @dev Constructor for CurationCouncilRegistryDelegate\n  * @param storage_ address of a BaseStorage contract\n  */\n  constructor(BaseStorage storage_)\n    CurationCouncilRegistry(storage_)\n    public\n  {\n  }\n\n  function tokenVault() public view returns (TokenVault) {\n    return TokenVault(_storage.getAddress('tokenVaultAddress'));\n  }\n\n  function tokenVaultAddress() public view returns (address) {\n    return _storage.getAddress('tokenVaultAddress');\n  }\n\n  function changeTokenVault(address addr) onlyOwner public {\n    require(addr != 0x0);\n    _storage.setAddress('tokenVaultAddress', addr);\n  }\n\n  /**\n  * @dev Join council by staking BOTC \n  * @param stakeAmount amount of BOTC in wei\n  */\n  function joinCouncil(uint256 stakeAmount)\n    public\n  {\n    super.joinCouncil(stakeAmount);\n  }\n\n  /**\n  * @dev Leave council staked BOTC will be returned by contract\n  */\n  function leaveCouncil()\n    public\n  {\n    super.leaveCouncil();\n  }\n\n  /**\n  * @dev Creates a new registration vote\n  */\n  function createRegistrationVote() public {\n    super.createRegistrationVote();\n  }\n\n  /**\n  * @dev Casts registration vote\n  * @param registrationVoteId The ID of the developer registration vote\n  * @param vote true for yay false for nay\n  */\n  function castRegistrationVote(\n    uint256 registrationVoteId,\n    bool vote\n  )\n    public\n  {\n    super.castRegistrationVote(registrationVoteId, vote);\n    tokenVault().applyCuratorReward();\n  }\n\n}\n",
  "sourcePath": "/Volumes/workspace/_projects/talla/botchain/contracts/Delegates/CurationCouncilRegistryDelegate.sol",
  "compiler": {
    "name": "solc",
    "version": "0.4.24+commit.e67f0147.Emscripten.clang"
  },
  "schemaVersion": "2.0.1",
  "updatedAt": "2018-11-05T14:24:53.645Z"
}